{
  "_format": "hh-sol-artifact-1",
  "contractName": "MEVAttacker",
  "sourceName": "contracts/mocks/MEVAttacker.sol",
  "abi": [
    {
      "inputs": [
        {
          "internalType": "address",
          "name": "_pool",
          "type": "address"
        }
      ],
      "stateMutability": "nonpayable",
      "type": "constructor"
    },
    {
      "inputs": [
        {
          "internalType": "uint256",
          "name": "amount",
          "type": "uint256"
        },
        {
          "internalType": "uint8",
          "name": "numTrades",
          "type": "uint8"
        }
      ],
      "name": "extractMEV",
      "outputs": [],
      "stateMutability": "nonpayable",
      "type": "function"
    },
    {
      "inputs": [],
      "name": "pool",
      "outputs": [
        {
          "internalType": "contract IUniswapV3PoolCompat",
          "name": "",
          "type": "address"
        }
      ],
      "stateMutability": "view",
      "type": "function"
    },
    {
      "inputs": [
        {
          "internalType": "int256",
          "name": "amount0Delta",
          "type": "int256"
        },
        {
          "internalType": "int256",
          "name": "amount1Delta",
          "type": "int256"
        },
        {
          "internalType": "bytes",
          "name": "data",
          "type": "bytes"
        }
      ],
      "name": "uniswapV3SwapCallback",
      "outputs": [],
      "stateMutability": "nonpayable",
      "type": "function"
    }
  ],
  "bytecode": "0x6080604052348015600f57600080fd5b50604051610881380380610881833981016040819052602c916050565b600080546001600160a01b0319166001600160a01b0392909216919091179055607e565b600060208284031215606157600080fd5b81516001600160a01b0381168114607757600080fd5b9392505050565b6107f48061008d6000396000f3fe608060405234801561001057600080fd5b50600436106100415760003560e01c806316f0115b1461004657806351acd63c14610075578063fa461e331461008a575b600080fd5b600054610059906001600160a01b031681565b6040516001600160a01b03909116815260200160405180910390f35b6100886100833660046105c3565b61009d565b005b6100886100983660046105f9565b610383565b60008054906101000a90046001600160a01b03166001600160a01b0316630dfe16816040518163ffffffff1660e01b8152600401602060405180830381865afa1580156100ee573d6000803e3d6000fd5b505050506040513d601f19601f82011682018060405250810190610112919061067c565b6000546001600160a01b039182169163095ea7b3911661013560ff8516866106c2565b6040516001600160e01b031960e085901b1681526001600160a01b03909216600483015260248201526044016020604051808303816000875af1158015610180573d6000803e3d6000fd5b505050506040513d601f19601f820116820180604052508101906101a491906106df565b5060008054906101000a90046001600160a01b03166001600160a01b031663d21220a76040518163ffffffff1660e01b8152600401602060405180830381865afa1580156101f6573d6000803e3d6000fd5b505050506040513d601f19601f8201168201806040525081019061021a919061067c565b6000546001600160a01b039182169163095ea7b3911661023d60ff8516866106c2565b6040516001600160e01b031960e085901b1681526001600160a01b03909216600483015260248201526044016020604051808303816000875af1158015610288573d6000803e3d6000fd5b505050506040513d601f19601f820116820180604052508101906102ac91906106df565b50600160005b8260ff168160ff16101561037d576000549115916001600160a01b031663128acb08308487816102f3576102ee60016001600160a01b03610701565b6102f6565b60015b60408051602081018c9052016040516020818303038152906040526040518663ffffffff1660e01b8152600401610331959493929190610720565b60408051808303816000875af115801561034f573d6000803e3d6000fd5b505050506040513d601f19601f82011682018060405250810190610373919061079a565b50506001016102b2565b50505050565b6000546001600160a01b031633146103d25760405162461bcd60e51b815260206004820152600e60248201526d139bdd08185d5d1a1bdc9a5e995960921b604482015260640160405180910390fd5b60008413156104c85760008054906101000a90046001600160a01b03166001600160a01b0316630dfe16816040518163ffffffff1660e01b8152600401602060405180830381865afa15801561042c573d6000803e3d6000fd5b505050506040513d601f19601f82011682018060405250810190610450919061067c565b60005460405163a9059cbb60e01b81526001600160a01b0391821660048201526024810187905291169063a9059cbb906044016020604051808303816000875af11580156104a2573d6000803e3d6000fd5b505050506040513d601f19601f820116820180604052508101906104c691906106df565b505b600083131561037d5760008054906101000a90046001600160a01b03166001600160a01b031663d21220a76040518163ffffffff1660e01b8152600401602060405180830381865afa158015610522573d6000803e3d6000fd5b505050506040513d601f19601f82011682018060405250810190610546919061067c565b60005460405163a9059cbb60e01b81526001600160a01b0391821660048201526024810186905291169063a9059cbb906044016020604051808303816000875af1158015610598573d6000803e3d6000fd5b505050506040513d601f19601f820116820180604052508101906105bc91906106df565b5050505050565b600080604083850312156105d657600080fd5b82359150602083013560ff811681146105ee57600080fd5b809150509250929050565b6000806000806060858703121561060f57600080fd5b8435935060208501359250604085013567ffffffffffffffff81111561063457600080fd5b8501601f8101871361064557600080fd5b803567ffffffffffffffff81111561065c57600080fd5b87602082840101111561066e57600080fd5b949793965060200194505050565b60006020828403121561068e57600080fd5b81516001600160a01b03811681146106a557600080fd5b9392505050565b634e487b7160e01b600052601160045260246000fd5b80820281158282048414176106d9576106d96106ac565b92915050565b6000602082840312156106f157600080fd5b815180151581146106a557600080fd5b6001600160a01b0382811682821603908111156106d9576106d96106ac565b6001600160a01b0386811682528515156020830152604082018590528316606082015260a0608082018190528251908201819052600090815b8181101561077657602081860181015160c0868401015201610759565b50600060c0828501015260c0601f19601f8301168401019150509695505050505050565b600080604083850312156107ad57600080fd5b50508051602090910151909290915056fea26469706673582212200645e7d4deb3bd0899c3f69992bb7d69933f14ac836f3f1d202187b4fa144d1364736f6c634300081c0033",
  "linkReferences": {},
  "deployedLinkReferences": {}
}