{
  "_format": "hh-sol-artifact-1",
  "contractName": "ReentrancyAttacker",
  "sourceName": "contracts/mocks/ReentrancyAttacker.sol",
  "abi": [
    {
      "inputs": [
        {
          "internalType": "address",
          "name": "_pool",
          "type": "address"
        }
      ],
      "stateMutability": "nonpayable",
      "type": "constructor"
    },
    {
      "inputs": [
        {
          "internalType": "uint256",
          "name": "amount0",
          "type": "uint256"
        },
        {
          "internalType": "uint256",
          "name": "amount1",
          "type": "uint256"
        }
      ],
      "name": "attack",
      "outputs": [],
      "stateMutability": "nonpayable",
      "type": "function"
    },
    {
      "inputs": [],
      "name": "attackMode",
      "outputs": [
        {
          "internalType": "bool",
          "name": "",
          "type": "bool"
        }
      ],
      "stateMutability": "view",
      "type": "function"
    },
    {
      "inputs": [],
      "name": "pool",
      "outputs": [
        {
          "internalType": "contract IUniswapV3PoolCompat",
          "name": "",
          "type": "address"
        }
      ],
      "stateMutability": "view",
      "type": "function"
    },
    {
      "inputs": [
        {
          "internalType": "uint256",
          "name": "fee0",
          "type": "uint256"
        },
        {
          "internalType": "uint256",
          "name": "fee1",
          "type": "uint256"
        },
        {
          "internalType": "bytes",
          "name": "data",
          "type": "bytes"
        }
      ],
      "name": "uniswapV3FlashCallback",
      "outputs": [],
      "stateMutability": "nonpayable",
      "type": "function"
    }
  ],
  "bytecode": "0x6080604052348015600f57600080fd5b506040516106c03803806106c0833981016040819052602c916050565b600080546001600160a01b0319166001600160a01b0392909216919091179055607e565b600060208284031215606157600080fd5b81516001600160a01b0381168114607757600080fd5b9392505050565b6106338061008d6000396000f3fe608060405234801561001057600080fd5b506004361061004c5760003560e01c806316f0115b146100515780634012c2fa14610081578063e1fa7638146100a5578063e9cbafb0146100ba575b600080fd5b600054610064906001600160a01b031681565b6040516001600160a01b0390911681526020015b60405180910390f35b60005461009590600160a01b900460ff1681565b6040519015158152602001610078565b6100b86100b336600461044f565b6100cd565b005b6100b86100c8366004610471565b61016a565b6000805460ff60a01b198116600160a01b17909155604080516020810185905280820184905281518082038301815260608201928390526312439b2f60e21b9092526001600160a01b039092169163490e6cbc9161013491309187918791906064016104f4565b600060405180830381600087803b15801561014e57600080fd5b505af1158015610162573d6000803e3d6000fd5b505050505050565b6000546001600160a01b031633146101b95760405162461bcd60e51b815260206004820152600e60248201526d139bdd08185d5d1a1bdc9a5e995960921b604482015260640160405180910390fd5b600054600160a01b900460ff1615610256576000805460ff60a01b19168155806101e58385018561044f565b6000546040516312439b2f60e21b81529294509092506001600160a01b03169063490e6cbc90610221903090869086908a908a9060040161055f565b600060405180830381600087803b15801561023b57600080fd5b505af115801561024f573d6000803e3d6000fd5b5050505050505b60008060009054906101000a90046001600160a01b03166001600160a01b0316630dfe16816040518163ffffffff1660e01b8152600401602060405180830381865afa1580156102aa573d6000803e3d6000fd5b505050506040513d601f19601f820116820180604052508101906102ce91906105ab565b905060008060009054906101000a90046001600160a01b03166001600160a01b031663d21220a76040518163ffffffff1660e01b8152600401602060405180830381865afa158015610324573d6000803e3d6000fd5b505050506040513d601f19601f8201168201806040525081019061034891906105ab565b905085156103c95760005460405163a9059cbb60e01b81526001600160a01b039182166004820152602481018890529083169063a9059cbb906044016020604051808303816000875af11580156103a3573d6000803e3d6000fd5b505050506040513d601f19601f820116820180604052508101906103c791906105db565b505b84156101625760005460405163a9059cbb60e01b81526001600160a01b039182166004820152602481018790529082169063a9059cbb906044016020604051808303816000875af1158015610422573d6000803e3d6000fd5b505050506040513d601f19601f8201168201806040525081019061044691906105db565b50505050505050565b6000806040838503121561046257600080fd5b50508035926020909101359150565b6000806000806060858703121561048757600080fd5b8435935060208501359250604085013567ffffffffffffffff8111156104ac57600080fd5b8501601f810187136104bd57600080fd5b803567ffffffffffffffff8111156104d457600080fd5b8760208284010111156104e657600080fd5b949793965060200194505050565b60018060a01b0385168152836020820152826040820152608060608201526000825180608084015260005b8181101561053c57602081860181015160a086840101520161051f565b50600060a0828501015260a0601f19601f83011684010191505095945050505050565b60018060a01b038616815284602082015283604082015260806060820152816080820152818360a0830137600081830160a090810191909152601f909201601f19160101949350505050565b6000602082840312156105bd57600080fd5b81516001600160a01b03811681146105d457600080fd5b9392505050565b6000602082840312156105ed57600080fd5b815180151581146105d457600080fdfea264697066735822122067ec3258ad2bf121145f0f6f8c1b5b97aa5e0088ba37b5584c593d441e6ba98d64736f6c634300081c0033",
  "linkReferences": {},
  "deployedLinkReferences": {}
}