{
  "_format": "hh-sol-artifact-1",
  "contractName": "FrontRunningAttacker",
  "sourceName": "contracts/mocks/FrontRunningAttacker.sol",
  "abi": [
    {
      "inputs": [
        {
          "internalType": "address",
          "name": "_pool",
          "type": "address"
        }
      ],
      "stateMutability": "nonpayable",
      "type": "constructor"
    },
    {
      "inputs": [
        {
          "internalType": "bool",
          "name": "zeroForOne",
          "type": "bool"
        },
        {
          "internalType": "uint256",
          "name": "amount",
          "type": "uint256"
        },
        {
          "internalType": "uint160",
          "name": "sqrtPriceLimitX96",
          "type": "uint160"
        }
      ],
      "name": "executeFrontRun",
      "outputs": [],
      "stateMutability": "nonpayable",
      "type": "function"
    },
    {
      "inputs": [],
      "name": "pool",
      "outputs": [
        {
          "internalType": "contract IUniswapV3PoolCompat",
          "name": "",
          "type": "address"
        }
      ],
      "stateMutability": "view",
      "type": "function"
    },
    {
      "inputs": [
        {
          "internalType": "int256",
          "name": "amount0Delta",
          "type": "int256"
        },
        {
          "internalType": "int256",
          "name": "amount1Delta",
          "type": "int256"
        },
        {
          "internalType": "bytes",
          "name": "data",
          "type": "bytes"
        }
      ],
      "name": "uniswapV3SwapCallback",
      "outputs": [],
      "stateMutability": "nonpayable",
      "type": "function"
    }
  ],
  "bytecode": "0x6080604052348015600f57600080fd5b5060405161076e38038061076e833981016040819052602c916050565b600080546001600160a01b0319166001600160a01b0392909216919091179055607e565b600060208284031215606157600080fd5b81516001600160a01b0381168114607757600080fd5b9392505050565b6106e18061008d6000396000f3fe608060405234801561001057600080fd5b50600436106100415760003560e01c806316f0115b14610046578063976597f914610075578063fa461e331461008a575b600080fd5b600054610059906001600160a01b031681565b6040516001600160a01b03909116815260200160405180910390f35b610088610083366004610507565b61009d565b005b610088610098366004610549565b6102a2565b8261011c5760008054906101000a90046001600160a01b03166001600160a01b031663d21220a76040518163ffffffff1660e01b8152600401602060405180830381865afa1580156100f3573d6000803e3d6000fd5b505050506040513d601f19601f8201168201806040525081019061011791906105cc565b610191565b60008054906101000a90046001600160a01b03166001600160a01b0316630dfe16816040518163ffffffff1660e01b8152600401602060405180830381865afa15801561016d573d6000803e3d6000fd5b505050506040513d601f19601f8201168201806040525081019061019191906105cc565b60005460405163095ea7b360e01b81526001600160a01b0391821660048201526024810185905291169063095ea7b3906044016020604051808303816000875af11580156101e3573d6000803e3d6000fd5b505050506040513d601f19601f8201168201806040525081019061020791906105f0565b506000546040805160208082018690528251808303909101815281830192839052630251596160e31b9092526001600160a01b039092169163128acb089161025991309188918891889160440161060d565b60408051808303816000875af1158015610277573d6000803e3d6000fd5b505050506040513d601f19601f8201168201806040525081019061029b9190610687565b5050505050565b6000546001600160a01b031633146102f15760405162461bcd60e51b815260206004820152600e60248201526d139bdd08185d5d1a1bdc9a5e995960921b604482015260640160405180910390fd5b60008413156103e75760008054906101000a90046001600160a01b03166001600160a01b0316630dfe16816040518163ffffffff1660e01b8152600401602060405180830381865afa15801561034b573d6000803e3d6000fd5b505050506040513d601f19601f8201168201806040525081019061036f91906105cc565b60005460405163a9059cbb60e01b81526001600160a01b0391821660048201526024810187905291169063a9059cbb906044016020604051808303816000875af11580156103c1573d6000803e3d6000fd5b505050506040513d601f19601f820116820180604052508101906103e591906105f0565b505b60008313156104db5760008054906101000a90046001600160a01b03166001600160a01b031663d21220a76040518163ffffffff1660e01b8152600401602060405180830381865afa158015610441573d6000803e3d6000fd5b505050506040513d601f19601f8201168201806040525081019061046591906105cc565b60005460405163a9059cbb60e01b81526001600160a01b0391821660048201526024810186905291169063a9059cbb906044016020604051808303816000875af11580156104b7573d6000803e3d6000fd5b505050506040513d601f19601f8201168201806040525081019061029b91906105f0565b50505050565b80151581146104ef57600080fd5b50565b6001600160a01b03811681146104ef57600080fd5b60008060006060848603121561051c57600080fd5b8335610527816104e1565b925060208401359150604084013561053e816104f2565b809150509250925092565b6000806000806060858703121561055f57600080fd5b8435935060208501359250604085013567ffffffffffffffff81111561058457600080fd5b8501601f8101871361059557600080fd5b803567ffffffffffffffff8111156105ac57600080fd5b8760208284010111156105be57600080fd5b949793965060200194505050565b6000602082840312156105de57600080fd5b81516105e9816104f2565b9392505050565b60006020828403121561060257600080fd5b81516105e9816104e1565b6001600160a01b0386811682528515156020830152604082018590528316606082015260a0608082018190528251908201819052600090815b8181101561066357602081860181015160c0868401015201610646565b50600060c0828501015260c0601f19601f8301168401019150509695505050505050565b6000806040838503121561069a57600080fd5b50508051602090910151909290915056fea2646970667358221220e45a52ac98248e302ecdb722ef8250223da70b630646eb1cee6b0eae465239de64736f6c634300081c0033",
  "linkReferences": {},
  "deployedLinkReferences": {}
}