{
  "_format": "hh-sol-artifact-1",
  "contractName": "OracleManipulator",
  "sourceName": "contracts/mocks/OracleManipulator.sol",
  "abi": [
    {
      "inputs": [
        {
          "internalType": "address",
          "name": "_pool",
          "type": "address"
        }
      ],
      "stateMutability": "nonpayable",
      "type": "constructor"
    },
    {
      "inputs": [
        {
          "internalType": "uint256",
          "name": "amount0",
          "type": "uint256"
        },
        {
          "internalType": "uint256",
          "name": "amount1",
          "type": "uint256"
        }
      ],
      "name": "executeFlashLoan",
      "outputs": [],
      "stateMutability": "nonpayable",
      "type": "function"
    },
    {
      "inputs": [
        {
          "internalType": "uint256",
          "name": "amount",
          "type": "uint256"
        },
        {
          "internalType": "bool",
          "name": "upward",
          "type": "bool"
        }
      ],
      "name": "manipulatePrice",
      "outputs": [],
      "stateMutability": "nonpayable",
      "type": "function"
    },
    {
      "inputs": [],
      "name": "pool",
      "outputs": [
        {
          "internalType": "contract IUniswapV3PoolCompat",
          "name": "",
          "type": "address"
        }
      ],
      "stateMutability": "view",
      "type": "function"
    },
    {
      "inputs": [
        {
          "internalType": "uint256",
          "name": "fee0",
          "type": "uint256"
        },
        {
          "internalType": "uint256",
          "name": "fee1",
          "type": "uint256"
        },
        {
          "internalType": "bytes",
          "name": "data",
          "type": "bytes"
        }
      ],
      "name": "uniswapV3FlashCallback",
      "outputs": [],
      "stateMutability": "nonpayable",
      "type": "function"
    },
    {
      "inputs": [
        {
          "internalType": "int256",
          "name": "amount0Delta",
          "type": "int256"
        },
        {
          "internalType": "int256",
          "name": "amount1Delta",
          "type": "int256"
        },
        {
          "internalType": "bytes",
          "name": "data",
          "type": "bytes"
        }
      ],
      "name": "uniswapV3SwapCallback",
      "outputs": [],
      "stateMutability": "nonpayable",
      "type": "function"
    }
  ],
  "bytecode": "0x6080604052348015600f57600080fd5b50604051610d30380380610d30833981016040819052602c916050565b600080546001600160a01b0319166001600160a01b0392909216919091179055607e565b600060208284031215606157600080fd5b81516001600160a01b0381168114607757600080fd5b9392505050565b610ca38061008d6000396000f3fe608060405234801561001057600080fd5b50600436106100575760003560e01c806316f0115b1461005c5780632042e1381461008b578063ac88169d146100a0578063e9cbafb0146100b3578063fa461e33146100c6575b600080fd5b60005461006f906001600160a01b031681565b6040516001600160a01b03909116815260200160405180910390f35b61009e6100993660046109fd565b6100d9565b005b61009e6100ae366004610a2d565b61030d565b61009e6100c1366004610a98565b610398565b61009e6100d4366004610a98565b6107b1565b6000816100e75760016100ea565b60005b90508061016b5760008054906101000a90046001600160a01b03166001600160a01b031663d21220a76040518163ffffffff1660e01b8152600401602060405180830381865afa158015610142573d6000803e3d6000fd5b505050506040513d601f19601f820116820180604052508101906101669190610aeb565b6101e0565b60008054906101000a90046001600160a01b03166001600160a01b0316630dfe16816040518163ffffffff1660e01b8152600401602060405180830381865afa1580156101bc573d6000803e3d6000fd5b505050506040513d601f19601f820116820180604052508101906101e09190610aeb565b60005460405163095ea7b360e01b81526001600160a01b0391821660048201526024810186905291169063095ea7b3906044016020604051808303816000875af1158015610232573d6000803e3d6000fd5b505050506040513d601f19601f820116820180604052508101906102569190610b1b565b506000546001600160a01b031663128acb0830838686610277576001610289565b61028960016001600160a01b03610b4e565b60408051602081018b9052016040516020818303038152906040526040518663ffffffff1660e01b81526004016102c4959493929190610bb9565b60408051808303816000875af11580156102e2573d6000803e3d6000fd5b505050506040513d601f19601f820116820180604052508101906103069190610bff565b5050505050565b600054604080516020810185905280820184905281518082038301815260608201928390526312439b2f60e21b9092526001600160a01b039092169163490e6cbc916103629130918791879190606401610c23565b600060405180830381600087803b15801561037c57600080fd5b505af1158015610390573d6000803e3d6000fd5b505050505050565b6000546001600160a01b031633146103e85760405162461bcd60e51b815260206004820152600e60248201526d139bdd08185d5d1a1bdc9a5e995960921b60448201526064015b60405180910390fd5b6000806103f783850185610a2d565b909250905081156105855760008054906101000a90046001600160a01b03166001600160a01b0316630dfe16816040518163ffffffff1660e01b8152600401602060405180830381865afa158015610453573d6000803e3d6000fd5b505050506040513d601f19601f820116820180604052508101906104779190610aeb565b60005460405163095ea7b360e01b81526001600160a01b0391821660048201526024810185905291169063095ea7b3906044016020604051808303816000875af11580156104c9573d6000803e3d6000fd5b505050506040513d601f19601f820116820180604052508101906104ed9190610b1b565b506000546040805160208082018690528251808303909101815281830192839052630251596160e31b9092526001600160a01b039092169163128acb089161054091309160019188918391604401610bb9565b60408051808303816000875af115801561055e573d6000803e3d6000fd5b505050506040513d601f19601f820116820180604052508101906105829190610bff565b50505b60008060009054906101000a90046001600160a01b03166001600160a01b0316630dfe16816040518163ffffffff1660e01b8152600401602060405180830381865afa1580156105d9573d6000803e3d6000fd5b505050506040513d601f19601f820116820180604052508101906105fd9190610aeb565b905060008060009054906101000a90046001600160a01b03166001600160a01b031663d21220a76040518163ffffffff1660e01b8152600401602060405180830381865afa158015610653573d6000803e3d6000fd5b505050506040513d601f19601f820116820180604052508101906106779190610aeb565b90508715610710576000546001600160a01b038084169163a9059cbb911661069f8b88610c5a565b6040516001600160e01b031960e085901b1681526001600160a01b03909216600483015260248201526044016020604051808303816000875af11580156106ea573d6000803e3d6000fd5b505050506040513d601f19601f8201168201806040525081019061070e9190610b1b565b505b86156107a7576000546001600160a01b038083169163a9059cbb91166107368a87610c5a565b6040516001600160e01b031960e085901b1681526001600160a01b03909216600483015260248201526044016020604051808303816000875af1158015610781573d6000803e3d6000fd5b505050506040513d601f19601f820116820180604052508101906107a59190610b1b565b505b5050505050505050565b6000546001600160a01b031633146107fc5760405162461bcd60e51b815260206004820152600e60248201526d139bdd08185d5d1a1bdc9a5e995960921b60448201526064016103df565b60008413156108f25760008054906101000a90046001600160a01b03166001600160a01b0316630dfe16816040518163ffffffff1660e01b8152600401602060405180830381865afa158015610856573d6000803e3d6000fd5b505050506040513d601f19601f8201168201806040525081019061087a9190610aeb565b60005460405163a9059cbb60e01b81526001600160a01b0391821660048201526024810187905291169063a9059cbb906044016020604051808303816000875af11580156108cc573d6000803e3d6000fd5b505050506040513d601f19601f820116820180604052508101906108f09190610b1b565b505b60008313156109e65760008054906101000a90046001600160a01b03166001600160a01b031663d21220a76040518163ffffffff1660e01b8152600401602060405180830381865afa15801561094c573d6000803e3d6000fd5b505050506040513d601f19601f820116820180604052508101906109709190610aeb565b60005460405163a9059cbb60e01b81526001600160a01b0391821660048201526024810186905291169063a9059cbb906044016020604051808303816000875af11580156109c2573d6000803e3d6000fd5b505050506040513d601f19601f820116820180604052508101906103069190610b1b565b50505050565b80151581146109fa57600080fd5b50565b60008060408385031215610a1057600080fd5b823591506020830135610a22816109ec565b809150509250929050565b60008060408385031215610a4057600080fd5b50508035926020909101359150565b60008083601f840112610a6157600080fd5b50813567ffffffffffffffff811115610a7957600080fd5b602083019150836020828501011115610a9157600080fd5b9250929050565b60008060008060608587031215610aae57600080fd5b8435935060208501359250604085013567ffffffffffffffff811115610ad357600080fd5b610adf87828801610a4f565b95989497509550505050565b600060208284031215610afd57600080fd5b81516001600160a01b0381168114610b1457600080fd5b9392505050565b600060208284031215610b2d57600080fd5b8151610b14816109ec565b634e487b7160e01b600052601160045260246000fd5b6001600160a01b038281168282160390811115610b6d57610b6d610b38565b92915050565b6000815180845260005b81811015610b9957602081850181015186830182015201610b7d565b506000602082860101526020601f19601f83011685010191505092915050565b6001600160a01b0386811682528515156020830152604082018590528316606082015260a060808201819052600090610bf490830184610b73565b979650505050505050565b60008060408385031215610c1257600080fd5b505080516020909101519092909150565b60018060a01b0385168152836020820152826040820152608060608201526000610c506080830184610b73565b9695505050505050565b80820180821115610b6d57610b6d610b3856fea2646970667358221220ffc816f47846eb6383fea1d6ff029782a2e1bfbf2f09a7c17626d1f6d969c52064736f6c634300081c0033",
  "linkReferences": {},
  "deployedLinkReferences": {}
}