{
  "_format": "hh-sol-artifact-1",
  "contractName": "FlashBorrower",
  "sourceName": "contracts/mocks/FlashBorrower.sol",
  "abi": [
    {
      "inputs": [
        {
          "internalType": "address",
          "name": "_pool",
          "type": "address"
        }
      ],
      "stateMutability": "nonpayable",
      "type": "constructor"
    },
    {
      "inputs": [
        {
          "internalType": "uint256",
          "name": "amount0",
          "type": "uint256"
        },
        {
          "internalType": "uint256",
          "name": "amount1",
          "type": "uint256"
        },
        {
          "internalType": "bool",
          "name": "repayProperly",
          "type": "bool"
        }
      ],
      "name": "flashBorrow",
      "outputs": [],
      "stateMutability": "nonpayable",
      "type": "function"
    },
    {
      "inputs": [],
      "name": "pool",
      "outputs": [
        {
          "internalType": "contract IUniswapV3PoolCompat",
          "name": "",
          "type": "address"
        }
      ],
      "stateMutability": "view",
      "type": "function"
    },
    {
      "inputs": [],
      "name": "shouldRepay",
      "outputs": [
        {
          "internalType": "bool",
          "name": "",
          "type": "bool"
        }
      ],
      "stateMutability": "view",
      "type": "function"
    },
    {
      "inputs": [
        {
          "internalType": "uint256",
          "name": "fee0",
          "type": "uint256"
        },
        {
          "internalType": "uint256",
          "name": "fee1",
          "type": "uint256"
        },
        {
          "internalType": "bytes",
          "name": "data",
          "type": "bytes"
        }
      ],
      "name": "uniswapV3FlashCallback",
      "outputs": [],
      "stateMutability": "nonpayable",
      "type": "function"
    }
  ],
  "bytecode": "0x6080604052348015600f57600080fd5b506040516106aa3803806106aa833981016040819052602c916050565b600080546001600160a01b0319166001600160a01b0392909216919091179055607e565b600060208284031215606157600080fd5b81516001600160a01b0381168114607757600080fd5b9392505050565b61061d8061008d6000396000f3fe608060405234801561001057600080fd5b506004361061004c5760003560e01c806316f0115b146100515780638eb604c814610081578063e9cbafb014610096578063ebf661b6146100a9575b600080fd5b600054610064906001600160a01b031681565b6040516001600160a01b0390911681526020015b60405180910390f35b61009461008f36600461042a565b6100cd565b005b6100946100a4366004610463565b610177565b6000546100bd90600160a01b900460ff1681565b6040519015158152602001610078565b60008054821515600160a01b0260ff60a01b1982168117909255604080516020810187905280820186905281518082038301815260608201928390526312439b2f60e21b9092526001600160a01b0393841693909216929092179163490e6cbc91610140913091889188916064016104e6565b600060405180830381600087803b15801561015a57600080fd5b505af115801561016e573d6000803e3d6000fd5b50505050505050565b6000546001600160a01b031633146101c65760405162461bcd60e51b815260206004820152600e60248201526d139bdd08185d5d1a1bdc9a5e995960921b604482015260640160405180910390fd5b6000806101d583850185610551565b6000549193509150600160a01b900460ff16156104115760008060009054906101000a90046001600160a01b03166001600160a01b0316630dfe16816040518163ffffffff1660e01b8152600401602060405180830381865afa158015610240573d6000803e3d6000fd5b505050506040513d601f19601f820116820180604052508101906102649190610573565b905060008060009054906101000a90046001600160a01b03166001600160a01b031663d21220a76040518163ffffffff1660e01b8152600401602060405180830381865afa1580156102ba573d6000803e3d6000fd5b505050506040513d601f19601f820116820180604052508101906102de9190610573565b90508315610377576000546001600160a01b038084169163a9059cbb91166103068b886105a3565b6040516001600160e01b031960e085901b1681526001600160a01b03909216600483015260248201526044016020604051808303816000875af1158015610351573d6000803e3d6000fd5b505050506040513d601f19601f8201168201806040525081019061037591906105ca565b505b821561040e576000546001600160a01b038083169163a9059cbb911661039d8a876105a3565b6040516001600160e01b031960e085901b1681526001600160a01b03909216600483015260248201526044016020604051808303816000875af11580156103e8573d6000803e3d6000fd5b505050506040513d601f19601f8201168201806040525081019061040c91906105ca565b505b50505b505050505050565b801515811461042757600080fd5b50565b60008060006060848603121561043f57600080fd5b8335925060208401359150604084013561045881610419565b809150509250925092565b6000806000806060858703121561047957600080fd5b8435935060208501359250604085013567ffffffffffffffff81111561049e57600080fd5b8501601f810187136104af57600080fd5b803567ffffffffffffffff8111156104c657600080fd5b8760208284010111156104d857600080fd5b949793965060200194505050565b60018060a01b0385168152836020820152826040820152608060608201526000825180608084015260005b8181101561052e57602081860181015160a0868401015201610511565b50600060a0828501015260a0601f19601f83011684010191505095945050505050565b6000806040838503121561056457600080fd5b50508035926020909101359150565b60006020828403121561058557600080fd5b81516001600160a01b038116811461059c57600080fd5b9392505050565b808201808211156105c457634e487b7160e01b600052601160045260246000fd5b92915050565b6000602082840312156105dc57600080fd5b815161059c8161041956fea2646970667358221220753b319eafd40032799545af7d0ea82b7a949b2a7e2fa5b9c8873c0960a240b564736f6c634300081c0033",
  "linkReferences": {},
  "deployedLinkReferences": {}
}