{
  "_format": "hh-sol-artifact-1",
  "contractName": "SwapReentrancyAttacker",
  "sourceName": "contracts/mocks/SwapReentrancyAttacker.sol",
  "abi": [
    {
      "inputs": [
        {
          "internalType": "address",
          "name": "_pool",
          "type": "address"
        }
      ],
      "stateMutability": "nonpayable",
      "type": "constructor"
    },
    {
      "inputs": [
        {
          "internalType": "bool",
          "name": "zeroForOne",
          "type": "bool"
        },
        {
          "internalType": "int256",
          "name": "amountSpecified",
          "type": "int256"
        },
        {
          "internalType": "uint160",
          "name": "sqrtPriceLimitX96",
          "type": "uint160"
        }
      ],
      "name": "attack",
      "outputs": [],
      "stateMutability": "nonpayable",
      "type": "function"
    },
    {
      "inputs": [],
      "name": "attackMode",
      "outputs": [
        {
          "internalType": "bool",
          "name": "",
          "type": "bool"
        }
      ],
      "stateMutability": "view",
      "type": "function"
    },
    {
      "inputs": [],
      "name": "pool",
      "outputs": [
        {
          "internalType": "contract IUniswapV3PoolCompat",
          "name": "",
          "type": "address"
        }
      ],
      "stateMutability": "view",
      "type": "function"
    },
    {
      "inputs": [
        {
          "internalType": "int256",
          "name": "amount0Delta",
          "type": "int256"
        },
        {
          "internalType": "int256",
          "name": "amount1Delta",
          "type": "int256"
        },
        {
          "internalType": "bytes",
          "name": "data",
          "type": "bytes"
        }
      ],
      "name": "uniswapV3SwapCallback",
      "outputs": [],
      "stateMutability": "nonpayable",
      "type": "function"
    }
  ],
  "bytecode": "0x6080604052348015600f57600080fd5b50604051610973380380610973833981016040819052602c916050565b600080546001600160a01b0319166001600160a01b0392909216919091179055607e565b600060208284031215606157600080fd5b81516001600160a01b0381168114607757600080fd5b9392505050565b6108e68061008d6000396000f3fe608060405234801561001057600080fd5b506004361061004c5760003560e01c806316f0115b146100515780634012c2fa14610081578063ab96f4ed146100a5578063fa461e33146100ba575b600080fd5b600054610064906001600160a01b031681565b6040516001600160a01b0390911681526020015b60405180910390f35b60005461009590600160a01b900460ff1681565b6040519015158152602001610078565b6100b86100b3366004610644565b6100cd565b005b6100b86100c8366004610686565b610320565b6000805460ff60a01b1916600160a01b1790558261015f5760008054906101000a90046001600160a01b03166001600160a01b031663d21220a76040518163ffffffff1660e01b8152600401602060405180830381865afa158015610136573d6000803e3d6000fd5b505050506040513d601f19601f8201168201806040525081019061015a9190610709565b6101d4565b60008054906101000a90046001600160a01b03166001600160a01b0316630dfe16816040518163ffffffff1660e01b8152600401602060405180830381865afa1580156101b0573d6000803e3d6000fd5b505050506040513d601f19601f820116820180604052508101906101d49190610709565b600080546001600160a01b039283169263095ea7b3929116908513610201576101fc85610743565b610203565b845b6040516001600160e01b031960e085901b1681526001600160a01b03909216600483015260248201526044016020604051808303816000875af115801561024e573d6000803e3d6000fd5b505050506040513d601f19601f82011682018060405250810190610272919061075f565b506000546040805185151560208201528082018590526001600160a01b03848116606080840191909152835180840390910181526080830193849052630251596160e31b9093529092169163128acb08916102d791309188918891889160840161077c565b60408051808303816000875af11580156102f5573d6000803e3d6000fd5b505050506040513d601f19601f8201168201806040525081019061031991906107f6565b5050505050565b6000546001600160a01b0316331461036f5760405162461bcd60e51b815260206004820152600e60248201526d139bdd08185d5d1a1bdc9a5e995960921b604482015260640160405180910390fd5b600054600160a01b900460ff161561042e576000805460ff60a01b19168155808061039c84860186610644565b60005492955090935091506001600160a01b031663128acb0830856103c260028761081a565b858a8a6040518763ffffffff1660e01b81526004016103e696959493929190610856565b60408051808303816000875af1158015610404573d6000803e3d6000fd5b505050506040513d601f19601f8201168201806040525081019061042891906107f6565b50505050505b60008413156105245760008054906101000a90046001600160a01b03166001600160a01b0316630dfe16816040518163ffffffff1660e01b8152600401602060405180830381865afa158015610488573d6000803e3d6000fd5b505050506040513d601f19601f820116820180604052508101906104ac9190610709565b60005460405163a9059cbb60e01b81526001600160a01b0391821660048201526024810187905291169063a9059cbb906044016020604051808303816000875af11580156104fe573d6000803e3d6000fd5b505050506040513d601f19601f82011682018060405250810190610522919061075f565b505b60008313156106185760008054906101000a90046001600160a01b03166001600160a01b031663d21220a76040518163ffffffff1660e01b8152600401602060405180830381865afa15801561057e573d6000803e3d6000fd5b505050506040513d601f19601f820116820180604052508101906105a29190610709565b60005460405163a9059cbb60e01b81526001600160a01b0391821660048201526024810186905291169063a9059cbb906044016020604051808303816000875af11580156105f4573d6000803e3d6000fd5b505050506040513d601f19601f82011682018060405250810190610319919061075f565b50505050565b801515811461062c57600080fd5b50565b6001600160a01b038116811461062c57600080fd5b60008060006060848603121561065957600080fd5b83356106648161061e565b925060208401359150604084013561067b8161062f565b809150509250925092565b6000806000806060858703121561069c57600080fd5b8435935060208501359250604085013567ffffffffffffffff8111156106c157600080fd5b8501601f810187136106d257600080fd5b803567ffffffffffffffff8111156106e957600080fd5b8760208284010111156106fb57600080fd5b949793965060200194505050565b60006020828403121561071b57600080fd5b81516107268161062f565b9392505050565b634e487b7160e01b600052601160045260246000fd5b6000600160ff1b82016107585761075861072d565b5060000390565b60006020828403121561077157600080fd5b81516107268161061e565b6001600160a01b0386811682528515156020830152604082018590528316606082015260a0608082018190528251908201819052600090815b818110156107d257602081860181015160c08684010152016107b5565b50600060c0828501015260c0601f19601f8301168401019150509695505050505050565b6000806040838503121561080957600080fd5b505080516020909101519092909150565b60008261083757634e487b7160e01b600052601260045260246000fd5b600160ff1b8214600019841416156108515761085161072d565b500590565b6001600160a01b0387811682528615156020830152604082018690528416606082015260a0608082018190528101829052818360c0830137600081830160c090810191909152601f909201601f191601019594505050505056fea2646970667358221220ceb6f2aa813ee73c3eed8e702f2b38c67e3a4d793e8e83c5a194e1463cc4052c64736f6c634300081c0033",
  "linkReferences": {},
  "deployedLinkReferences": {}
}