{
  "_format": "hh-sol-artifact-1",
  "contractName": "MintReentrancyAttacker",
  "sourceName": "contracts/mocks/MintReentrancyAttacker.sol",
  "abi": [
    {
      "inputs": [
        {
          "internalType": "address",
          "name": "_pool",
          "type": "address"
        }
      ],
      "stateMutability": "nonpayable",
      "type": "constructor"
    },
    {
      "inputs": [
        {
          "internalType": "int24",
          "name": "tickLower",
          "type": "int24"
        },
        {
          "internalType": "int24",
          "name": "tickUpper",
          "type": "int24"
        },
        {
          "internalType": "uint128",
          "name": "amount",
          "type": "uint128"
        }
      ],
      "name": "attack",
      "outputs": [],
      "stateMutability": "nonpayable",
      "type": "function"
    },
    {
      "inputs": [],
      "name": "attackMode",
      "outputs": [
        {
          "internalType": "bool",
          "name": "",
          "type": "bool"
        }
      ],
      "stateMutability": "view",
      "type": "function"
    },
    {
      "inputs": [],
      "name": "pool",
      "outputs": [
        {
          "internalType": "contract IUniswapV3PoolCompat",
          "name": "",
          "type": "address"
        }
      ],
      "stateMutability": "view",
      "type": "function"
    },
    {
      "inputs": [
        {
          "internalType": "uint256",
          "name": "amount0Owed",
          "type": "uint256"
        },
        {
          "internalType": "uint256",
          "name": "amount1Owed",
          "type": "uint256"
        },
        {
          "internalType": "bytes",
          "name": "data",
          "type": "bytes"
        }
      ],
      "name": "uniswapV3MintCallback",
      "outputs": [],
      "stateMutability": "nonpayable",
      "type": "function"
    }
  ],
  "bytecode": "0x6080604052348015600f57600080fd5b506040516109a83803806109a8833981016040819052602c916050565b600080546001600160a01b0319166001600160a01b0392909216919091179055607e565b600060208284031215606157600080fd5b81516001600160a01b0381168114607757600080fd5b9392505050565b61091b8061008d6000396000f3fe608060405234801561001057600080fd5b506004361061004c5760003560e01c806316f0115b146100515780634012c2fa14610081578063948e5d10146100a5578063d3487997146100ba575b600080fd5b600054610064906001600160a01b031681565b6040516001600160a01b0390911681526020015b60405180910390f35b60005461009590600160a01b900460ff1681565b6040519015158152602001610078565b6100b86100b3366004610678565b6100cd565b005b6100b86100c83660046106cb565b610369565b6000805460ff60a01b198116600160a01b1790915560408051630dfe168160e01b815290516001600160a01b0390921691630dfe1681916004808201926020929091908290030181865afa158015610129573d6000803e3d6000fd5b505050506040513d601f19601f8201168201806040525081019061014d919061074e565b60005460405163095ea7b360e01b81526001600160a01b039182166004820152600019602482015291169063095ea7b3906044016020604051808303816000875af11580156101a0573d6000803e3d6000fd5b505050506040513d601f19601f820116820180604052508101906101c4919061077e565b5060008054906101000a90046001600160a01b03166001600160a01b031663d21220a76040518163ffffffff1660e01b8152600401602060405180830381865afa158015610216573d6000803e3d6000fd5b505050506040513d601f19601f8201168201806040525081019061023a919061074e565b60005460405163095ea7b360e01b81526001600160a01b039182166004820152600019602482015291169063095ea7b3906044016020604051808303816000875af115801561028d573d6000803e3d6000fd5b505050506040513d601f19601f820116820180604052508101906102b1919061077e565b5060005460408051600286810b602083015285900b818301526001600160801b038416606080830191909152825180830390910181526080820192839052633c8a7d8d60e01b9092526001600160a01b0390921691633c8a7d8d916103209130918891889188916084016107a0565b60408051808303816000875af115801561033e573d6000803e3d6000fd5b505050506040513d601f19601f820116820180604052508101906103629190610821565b5050505050565b6000546001600160a01b031633146103b85760405162461bcd60e51b815260206004820152600e60248201526d139bdd08185d5d1a1bdc9a5e995960921b604482015260640160405180910390fd5b600054600160a01b900460ff1615610477576000805460ff60a01b1916815580806103e584860186610678565b60005492955090935091506001600160a01b0316633c8a7d8d30858561040c600287610845565b8a8a6040518763ffffffff1660e01b815260040161042f96959493929190610881565b60408051808303816000875af115801561044d573d6000803e3d6000fd5b505050506040513d601f19601f820116820180604052508101906104719190610821565b50505050505b831561056a5760008054906101000a90046001600160a01b03166001600160a01b0316630dfe16816040518163ffffffff1660e01b8152600401602060405180830381865afa1580156104ce573d6000803e3d6000fd5b505050506040513d601f19601f820116820180604052508101906104f2919061074e565b60005460405163a9059cbb60e01b81526001600160a01b0391821660048201526024810187905291169063a9059cbb906044016020604051808303816000875af1158015610544573d6000803e3d6000fd5b505050506040513d601f19601f82011682018060405250810190610568919061077e565b505b821561065b5760008054906101000a90046001600160a01b03166001600160a01b031663d21220a76040518163ffffffff1660e01b8152600401602060405180830381865afa1580156105c1573d6000803e3d6000fd5b505050506040513d601f19601f820116820180604052508101906105e5919061074e565b60005460405163a9059cbb60e01b81526001600160a01b0391821660048201526024810186905291169063a9059cbb906044016020604051808303816000875af1158015610637573d6000803e3d6000fd5b505050506040513d601f19601f82011682018060405250810190610362919061077e565b50505050565b8035600281900b811461067357600080fd5b919050565b60008060006060848603121561068d57600080fd5b61069684610661565b92506106a460208501610661565b915060408401356001600160801b03811681146106c057600080fd5b809150509250925092565b600080600080606085870312156106e157600080fd5b8435935060208501359250604085013567ffffffffffffffff81111561070657600080fd5b8501601f8101871361071757600080fd5b803567ffffffffffffffff81111561072e57600080fd5b87602082840101111561074057600080fd5b949793965060200194505050565b60006020828403121561076057600080fd5b81516001600160a01b038116811461077757600080fd5b9392505050565b60006020828403121561079057600080fd5b8151801515811461077757600080fd5b60018060a01b03861681528460020b60208201528360020b60408201526001600160801b038316606082015260a06080820152600082518060a084015260005b818110156107fd57602081860181015160c08684010152016107e0565b50600060c0828501015260c0601f19601f8301168401019150509695505050505050565b6000806040838503121561083457600080fd5b505080516020909101519092909150565b60006001600160801b0383168061086c57634e487b7160e01b600052601260045260246000fd5b806001600160801b0384160491505092915050565b6001600160a01b0387168152600286810b602083015285900b60408201526001600160801b038416606082015260a0608082018190528101829052818360c0830137600081830160c090810191909152601f909201601f191601019594505050505056fea2646970667358221220c0e7e3b3e2394a767380bf39236f5356787d42a744068feb74aa5d1213535dac64736f6c634300081c0033",
  "linkReferences": {},
  "deployedLinkReferences": {}
}